:020000040000fa
:080000000002040000000000f2
:020000040000fa
:10040000cf802000007f2200000188000000000053
:100410000c000700c04b2000010020001100070065
:10042000000020000000e000020032000000020096
:100430000000000090020200000000000040da000e
:100440000000fe004440a900000020000000e00081
:100450000300320000002000a00188004440a800f2
:100460000000060091018800800078000000eb0089
:1004700015003700e280400032a0b4009101ba00bc
:10048000e280400032a0b4009102ba00e280400055
:1004900032a0b4000002eb00472bde00f507b200eb
:1004a000602ce10004003a000059eb008301e900f0
:1004b000fdff3e00040037006128e100010032002a
:1004c0000082eb00040007001101ba000200e00006
:1004d000e8ff3a00000006003159ba008301e90044
:1004e0000c0032002159ba008301e90008003200f3
:1004f0000400e00003003a00e280400032a0b400b3
:10050000f5ff370011d9ba008301e900faff3a007c
:100510008100e800e180400032a0b4000000060045
:020000040000fa
:020000040002f8
:04aff800bd7a00001e
:020000040000fa
:020000040002f8
:04affc007f3f000093
:020000040000fa
:10000800ce040000ce040000ce040000ce040000a0
:10001800ce040000ce040000ce040000ce04000090
:10002800ce040000ce040000ce040000ce04000080
:10003800ce040000ce040000ce040000c40300007b
:10004800ce040000ce040000ce040000ce04000060
:10005800ce040000ce040000ce040000ce04000050
:10006800ce040000ce040000ce040000ce04000040
:10007800ce040000ce040000ce040000ce04000030
:10008800ce040000ce040000ce040000ce04000020
:10009800ce040000ce040000ce040000ce04000010
:1000a800ce040000ce040000ce040000ce04000000
:1000b800ce040000ce040000ce040000ce040000f0
:1000c800ce040000ce040000ce040000ce040000e0
:1000d800ce040000ce040000ce040000ce040000d0
:1000e800ce040000ce040000ce040000ce040000c0
:1000f800ce040000ce040000ce040000ce040000b0
:10010800ce040000ce040000ce040000ce0400009f
:10011800ce040000ce040000ce040000ce0400008f
:10012800ce040000ce040000ce040000ce0400007f
:10013800ce040000ce040000ce040000ce0400006f
:10014800ce040000ce040000ce040000ce0400005f
:10015800ce040000ce040000ce040000ce0400004f
:10016800ce040000ce040000ce040000ce0400003f
:10017800ce040000ce040000ce040000ce0400002f
:10018800ce040000ce040000ce040000ce0400001f
:10019800ce040000ce040000ce040000ce0400000f
:1001a800ce040000ce040000ce040000ce040000ff
:1001b800ce040000ce040000ce040000ce040000ef
:1001c800ce040000ce040000ce040000ce040000df
:1001d800ce040000ce040000ce040000ce040000cf
:1001e800ce040000ce040000ce040000ce040000bf
:0801f800ce040000ce0400005b
:020000040000fa
:10020800ce040000ce040000ce040000ce0400009e
:10021800ce040000ce040000ce040000ce0400008e
:10022800ce040000ce040000ce040000ce0400007e
:10023800ce040000ce040000ce040000c403000079
:10024800ce040000ce040000ce040000ce0400005e
:10025800ce040000ce040000ce040000ce0400004e
:10026800ce040000ce040000ce040000ce0400003e
:10027800ce040000ce040000ce040000ce0400002e
:10028800ce040000ce040000ce040000ce0400001e
:10029800ce040000ce040000ce040000ce0400000e
:1002a800ce040000ce040000ce040000ce040000fe
:1002b800ce040000ce040000ce040000ce040000ee
:1002c800ce040000ce040000ce040000ce040000de
:1002d800ce040000ce040000ce040000ce040000ce
:1002e800ce040000ce040000ce040000ce040000be
:1002f800ce040000ce040000ce040000ce040000ae
:10030800ce040000ce040000ce040000ce0400009d
:10031800ce040000ce040000ce040000ce0400008d
:10032800ce040000ce040000ce040000ce0400007d
:10033800ce040000ce040000ce040000ce0400006d
:10034800ce040000ce040000ce040000ce0400005d
:10035800ce040000ce040000ce040000ce0400004d
:10036800ce040000ce040000ce040000ce0400003d
:10037800ce040000ce040000ce040000ce0400002d
:10038800ce040000ce040000ce040000ce0400001d
:10039800ce040000ce040000ce040000ce0400000d
:1003a800ce040000ce040000ce040000ce040000fd
:1003b800ce040000ce040000ce040000ce040000ed
:1003c800ce040000ce040000ce040000ce040000dd
:1003d800ce040000ce040000ce040000ce040000cd
:1003e800ce040000ce040000ce040000ce040000bd
:0803f800ce040000ce04000059
:020000040000fa
:100520000000fa0000202200103a88000000eb00d2
:10053000203a880000f02f0000168800ef00070026
:10054000f070220060088800e02e2000000c880077
:10055000e02e2000100c8800e02e2000300c8800d7
:10056000e02e2000400c880084e0a90094e0a80060
:10057000710a200091407800f0c8b30000c060000c
:1005800001c4b30001407000a7e0b70042c0bf0043
:100590007f40600042e0b7000000eb0030088800b8
:1005a00060002000200c880060002000500c8800b3
:1005b000000128008008880000003700e3000700e1
:1005c00006e8b700618020009140780000c7b300c2
:1005d00080cf5000050032006180200091407800fb
:1005e00040c7b30080cf500003003a0076000700f8
:1005f00096000700f1ff37006180200091407800ed
:1006000010c6b30080cf500005003a00c012200091
:100610001040880010408000000c8800e7ff370081
:10062000618020009140780030c7b30080cf500037
:1006300005003a0060132000104088001040800040
:10064000000c8800ddff37006180200091407800b9
:1006500040c6b30080cf500005003a00e02e2000d5
:100660001040880010408000000c8800d3ff370045
:10067000618020009140780060c6b30080cf5000b8
:1006800005003a00605420001040880010408000af
:10069000000c8800c9ff370061802000914078007d
:1006a00070c6b30080cf500005003a00a05520006e
:1006b0001040880010408000000c8800bfff370009
:1006c0006180200091407800a0c7b30080cf500027
:1006d00005003a00201220002040880020408000c1
:1006e000300c8800b5ff3700618020009140780011
:1006f00080c7b30080cf500005003a00c012200030
:100700002040880020408000300c8800abff37007c
:10071000618020009140780030c6b30080cf500047
:1007200005003a00e02e2000204088002040800094
:10073000300c8800a1ff37006180200091407800d4
:1007400060c7b30080cf500005003a00205320005e
:100750002040880020408000300c880097ff370040
:10076000618020009140780020c6b30080cf500007
:1007700092ff3a0010542000204088002040800062
:10078000300c88008dff3700809fbe003400f800d9
:1007900000002000a00188000000fa000140800055
:1007a00000082000008068000040880000408000b1
:1007b0002016880084e0a9000080fa003400f900c7
:1007c0004f00be00004006000000fa005f00070076
:1007d00007e8b7005d00070008e8b7005b00070006
:1007e00009e8b70009c8bf008000fb0000fd2f002a
:1007f000008040005040880008c8bf000000fb0097
:100800006a00b9008000780050408000808040007d
:1008100000e22f00008040005040880007c8bf0061
:100820008000fb00400620000088b90080007800ae
:10083000504080008080400000d42e0000804000a6
:10084000504088000080fa00000006000000fa0016
:10085000618020009140780040c7b30080cf5000f5
:1008600010003a0051408000401f2000808f50004f
:100870002000340051408000703e2000808f5000e6
:100880001c003c0050408000104088001040800058
:10089000000c8800004080000000a200004088009a
:1008a00014003700618020009140780000c7b30039
:1008b00080cf50000f003a0051408000401f2000c0
:1008c000808f50000b00340051408000703e2000ab
:1008d000808f500007003c0050408000204088007e
:1008e00020408000300c8800004080000010a200f2
:1008f000004088000080fa00000006000000fa00b6
:1009000090012000c011880000002800801188009c
:10091000004028009011880087c0a9000080fa00dc
:10092000000006000200fa00004f780033c2bf004a
:10093000624060000004e000fcff3a001e00fb0083
:10094000a01188000080fa00000006000200fa00f2
:1009500087c0bf000044b2000004e000fcff32008a
:10096000b0118000004f780087c0a9001e00fb0076
:080970000080fa0000000600ff
:020000040000fa
:100978000008000006000000020000000000ee0071
:1009880002ee020006080000060000000000000059
:04099800000000005b
:020000040000fa
:04099c000000fe0059
:00000001FF
